{
	"tabi/tabiContractForInteraction/gamble.sol": {
		"TabiGamble": {
			"abi": [
				{
					"anonymous": false,
					"inputs": [
						{
							"indexed": false,
							"internalType": "address",
							"name": "gambler",
							"type": "address"
						},
						{
							"indexed": false,
							"internalType": "bool",
							"name": "result",
							"type": "bool"
						}
					],
					"name": "GambleResult",
					"type": "event"
				},
				{
					"anonymous": false,
					"inputs": [
						{
							"indexed": false,
							"internalType": "address",
							"name": "gambler",
							"type": "address"
						},
						{
							"indexed": false,
							"internalType": "uint256",
							"name": "amount",
							"type": "uint256"
						}
					],
					"name": "NewGamble",
					"type": "event"
				},
				{
					"anonymous": false,
					"inputs": [
						{
							"indexed": false,
							"internalType": "uint256",
							"name": "randNum",
							"type": "uint256"
						}
					],
					"name": "NewRandomNumber",
					"type": "event"
				},
				{
					"inputs": [],
					"name": "Deposit",
					"outputs": [],
					"stateMutability": "payable",
					"type": "function"
				},
				{
					"inputs": [],
					"name": "GambleStart",
					"outputs": [],
					"stateMutability": "payable",
					"type": "function"
				},
				{
					"inputs": [],
					"name": "Ownable",
					"outputs": [],
					"stateMutability": "nonpayable",
					"type": "function"
				},
				{
					"inputs": [],
					"name": "SendAll",
					"outputs": [],
					"stateMutability": "payable",
					"type": "function"
				},
				{
					"inputs": [],
					"name": "owner",
					"outputs": [
						{
							"internalType": "address",
							"name": "",
							"type": "address"
						}
					],
					"stateMutability": "view",
					"type": "function"
				}
			],
			"devdoc": {
				"kind": "dev",
				"methods": {},
				"version": 1
			},
			"evm": {
				"assembly": "    /* \"tabi/tabiContractForInteraction/gamble.sol\":324:2114  contract TabiGamble {... */\n  mstore(0x40, 0x80)\n    /* \"tabi/tabiContractForInteraction/gamble.sol\":522:526  1e18 */\n  0x0de0b6b3a7640000\n    /* \"tabi/tabiContractForInteraction/gamble.sol\":504:526  uint256 eth2wei = 1e18 */\n  0x00\n  sstore\n    /* \"tabi/tabiContractForInteraction/gamble.sol\":552:556  1e17 */\n  0x016345785d8a0000\n    /* \"tabi/tabiContractForInteraction/gamble.sol\":532:556  uint256 _maxStake = 1e17 */\n  0x01\n  sstore\n    /* \"tabi/tabiContractForInteraction/gamble.sol\":579:580  0 */\n  0x00\n    /* \"tabi/tabiContractForInteraction/gamble.sol\":562:580  uint256 _nonce = 0 */\n  0x02\n  sstore\n    /* \"tabi/tabiContractForInteraction/gamble.sol\":324:2114  contract TabiGamble {... */\n  callvalue\n  dup1\n  iszero\n  tag_1\n  jumpi\n  0x00\n  dup1\n  revert\ntag_1:\n  pop\n  dataSize(sub_0)\n  dup1\n  dataOffset(sub_0)\n  0x00\n  codecopy\n  0x00\n  return\nstop\n\nsub_0: assembly {\n        /* \"tabi/tabiContractForInteraction/gamble.sol\":324:2114  contract TabiGamble {... */\n      mstore(0x40, 0x80)\n      jumpi(tag_1, lt(calldatasize, 0x04))\n      shr(0xe0, calldataload(0x00))\n      dup1\n      0x307e44c7\n      eq\n      tag_2\n      jumpi\n      dup1\n      0x7315351a\n      eq\n      tag_3\n      jumpi\n      dup1\n      0x8afc3605\n      eq\n      tag_4\n      jumpi\n      dup1\n      0x8da5cb5b\n      eq\n      tag_5\n      jumpi\n      dup1\n      0xed21248c\n      eq\n      tag_6\n      jumpi\n    tag_1:\n      0x00\n      dup1\n      revert\n        /* \"tabi/tabiContractForInteraction/gamble.sol\":1479:2112  function GambleStart() public payable  {... */\n    tag_2:\n      tag_7\n      tag_8\n      jump\t// in\n    tag_7:\n      stop\n        /* \"tabi/tabiContractForInteraction/gamble.sol\":1234:1416  function SendAll() public payable onlyOwner {... */\n    tag_3:\n      tag_9\n      tag_10\n      jump\t// in\n    tag_9:\n      stop\n        /* \"tabi/tabiContractForInteraction/gamble.sol\":614:707  function Ownable() public {... */\n    tag_4:\n      callvalue\n      dup1\n      iszero\n      tag_11\n      jumpi\n      0x00\n      dup1\n      revert\n    tag_11:\n      pop\n      tag_12\n      tag_13\n      jump\t// in\n    tag_12:\n      stop\n        /* \"tabi/tabiContractForInteraction/gamble.sol\":587:607  address public owner */\n    tag_5:\n      callvalue\n      dup1\n      iszero\n      tag_14\n      jumpi\n      0x00\n      dup1\n      revert\n    tag_14:\n      pop\n      tag_15\n      tag_16\n      jump\t// in\n    tag_15:\n      mload(0x40)\n      tag_17\n      swap2\n      swap1\n      tag_18\n      jump\t// in\n    tag_17:\n      mload(0x40)\n      dup1\n      swap2\n      sub\n      swap1\n      return\n        /* \"tabi/tabiContractForInteraction/gamble.sol\":1422:1473  function Deposit() public payable onlyOwner {... */\n    tag_6:\n      tag_19\n      tag_20\n      jump\t// in\n    tag_19:\n      stop\n        /* \"tabi/tabiContractForInteraction/gamble.sol\":1479:2112  function GambleStart() public payable  {... */\n    tag_8:\n        /* \"tabi/tabiContractForInteraction/gamble.sol\":1549:1558  _maxStake */\n      sload(0x01)\n        /* \"tabi/tabiContractForInteraction/gamble.sol\":1536:1545  msg.value */\n      callvalue\n        /* \"tabi/tabiContractForInteraction/gamble.sol\":1536:1558  msg.value <= _maxStake */\n      gt\n      iszero\n        /* \"tabi/tabiContractForInteraction/gamble.sol\":1528:1599  require(msg.value <= _maxStake, \"gamble amount have to lower than 0.1\") */\n      tag_22\n      jumpi\n      mload(0x40)\n      0x08c379a000000000000000000000000000000000000000000000000000000000\n      dup2\n      mstore\n      0x04\n      add\n      tag_23\n      swap1\n      tag_24\n      jump\t// in\n    tag_23:\n      mload(0x40)\n      dup1\n      swap2\n      sub\n      swap1\n      revert\n    tag_22:\n        /* \"tabi/tabiContractForInteraction/gamble.sol\":1630:1651  address(this).balance */\n      selfbalance\n        /* \"tabi/tabiContractForInteraction/gamble.sol\":1617:1626  msg.value */\n      callvalue\n        /* \"tabi/tabiContractForInteraction/gamble.sol\":1617:1651  msg.value <= address(this).balance */\n      gt\n      iszero\n        /* \"tabi/tabiContractForInteraction/gamble.sol\":1609:1689  require(msg.value <= address(this).balance, \"exceeded contract wallet's amount\") */\n      tag_25\n      jumpi\n      mload(0x40)\n      0x08c379a000000000000000000000000000000000000000000000000000000000\n      dup2\n      mstore\n      0x04\n      add\n      tag_26\n      swap1\n      tag_27\n      jump\t// in\n    tag_26:\n      mload(0x40)\n      dup1\n      swap2\n      sub\n      swap1\n      revert\n    tag_25:\n        /* \"tabi/tabiContractForInteraction/gamble.sol\":1720:1730  msg.sender */\n      caller\n        /* \"tabi/tabiContractForInteraction/gamble.sol\":1720:1738  msg.sender.balance */\n      0xffffffffffffffffffffffffffffffffffffffff\n      and\n      balance\n        /* \"tabi/tabiContractForInteraction/gamble.sol\":1707:1716  msg.value */\n      callvalue\n        /* \"tabi/tabiContractForInteraction/gamble.sol\":1707:1738  msg.value <= msg.sender.balance */\n      gt\n      iszero\n        /* \"tabi/tabiContractForInteraction/gamble.sol\":1699:1770  require(msg.value <= msg.sender.balance, \"exceeded your wallet amount\") */\n      tag_28\n      jumpi\n      mload(0x40)\n      0x08c379a000000000000000000000000000000000000000000000000000000000\n      dup2\n      mstore\n      0x04\n      add\n      tag_29\n      swap1\n      tag_30\n      jump\t// in\n    tag_29:\n      mload(0x40)\n      dup1\n      swap2\n      sub\n      swap1\n      revert\n    tag_28:\n        /* \"tabi/tabiContractForInteraction/gamble.sol\":1785:1817  NewGamble(msg.sender, msg.value) */\n      0x4f96ec3de2dad9a903707c2db5a1676d43acd0356ec2b9b1beae6d0f81cc9db5\n        /* \"tabi/tabiContractForInteraction/gamble.sol\":1795:1805  msg.sender */\n      caller\n        /* \"tabi/tabiContractForInteraction/gamble.sol\":1807:1816  msg.value */\n      callvalue\n        /* \"tabi/tabiContractForInteraction/gamble.sol\":1785:1817  NewGamble(msg.sender, msg.value) */\n      mload(0x40)\n      tag_31\n      swap3\n      swap2\n      swap1\n      tag_32\n      jump\t// in\n    tag_31:\n      mload(0x40)\n      dup1\n      swap2\n      sub\n      swap1\n      log1\n        /* \"tabi/tabiContractForInteraction/gamble.sol\":1832:1845  CheckResult() */\n      tag_33\n        /* \"tabi/tabiContractForInteraction/gamble.sol\":1832:1843  CheckResult */\n      tag_34\n        /* \"tabi/tabiContractForInteraction/gamble.sol\":1832:1845  CheckResult() */\n      jump\t// in\n    tag_33:\n        /* \"tabi/tabiContractForInteraction/gamble.sol\":1829:2106  if(CheckResult()){... */\n      iszero\n      tag_35\n      jumpi\n        /* \"tabi/tabiContractForInteraction/gamble.sol\":1860:1873  uint256 prize */\n      0x00\n        /* \"tabi/tabiContractForInteraction/gamble.sol\":1880:1889  msg.value */\n      callvalue\n        /* \"tabi/tabiContractForInteraction/gamble.sol\":1876:1877  3 */\n      0x03\n        /* \"tabi/tabiContractForInteraction/gamble.sol\":1876:1889  3 * msg.value */\n      tag_36\n      swap2\n      swap1\n      tag_37\n      jump\t// in\n    tag_36:\n        /* \"tabi/tabiContractForInteraction/gamble.sol\":1860:1889  uint256 prize = 3 * msg.value */\n      swap1\n      pop\n        /* \"tabi/tabiContractForInteraction/gamble.sol\":1987:1996  bool sent */\n      0x00\n        /* \"tabi/tabiContractForInteraction/gamble.sol\":2010:2020  msg.sender */\n      caller\n        /* \"tabi/tabiContractForInteraction/gamble.sol\":2002:2026  payable(msg.sender).call */\n      0xffffffffffffffffffffffffffffffffffffffff\n      and\n        /* \"tabi/tabiContractForInteraction/gamble.sol\":2034:2039  prize */\n      dup3\n        /* \"tabi/tabiContractForInteraction/gamble.sol\":2002:2044  payable(msg.sender).call{value: prize}(\"\") */\n      mload(0x40)\n      tag_38\n      swap1\n      tag_39\n      jump\t// in\n    tag_38:\n      0x00\n      mload(0x40)\n      dup1\n      dup4\n      sub\n      dup2\n      dup6\n      dup8\n      gas\n      call\n      swap3\n      pop\n      pop\n      pop\n      returndatasize\n      dup1\n      0x00\n      dup2\n      eq\n      tag_42\n      jumpi\n      mload(0x40)\n      swap2\n      pop\n      and(add(returndatasize, 0x3f), not(0x1f))\n      dup3\n      add\n      0x40\n      mstore\n      returndatasize\n      dup3\n      mstore\n      returndatasize\n      0x00\n      0x20\n      dup5\n      add\n      returndatacopy\n      jump(tag_41)\n    tag_42:\n      0x60\n      swap2\n      pop\n    tag_41:\n      pop\n        /* \"tabi/tabiContractForInteraction/gamble.sol\":1986:2044  (bool sent, ) = payable(msg.sender).call{value: prize}(\"\") */\n      pop\n      swap1\n      pop\n        /* \"tabi/tabiContractForInteraction/gamble.sol\":2066:2070  sent */\n      dup1\n        /* \"tabi/tabiContractForInteraction/gamble.sol\":2058:2095  require(sent, \"Failed to send Ether\") */\n      tag_43\n      jumpi\n      mload(0x40)\n      0x08c379a000000000000000000000000000000000000000000000000000000000\n      dup2\n      mstore\n      0x04\n      add\n      tag_44\n      swap1\n      tag_45\n      jump\t// in\n    tag_44:\n      mload(0x40)\n      dup1\n      swap2\n      sub\n      swap1\n      revert\n    tag_43:\n        /* \"tabi/tabiContractForInteraction/gamble.sol\":1846:2106  {... */\n      pop\n      pop\n        /* \"tabi/tabiContractForInteraction/gamble.sol\":1829:2106  if(CheckResult()){... */\n    tag_35:\n        /* \"tabi/tabiContractForInteraction/gamble.sol\":1479:2112  function GambleStart() public payable  {... */\n      jump\t// out\n        /* \"tabi/tabiContractForInteraction/gamble.sol\":1234:1416  function SendAll() public payable onlyOwner {... */\n    tag_10:\n        /* \"tabi/tabiContractForInteraction/gamble.sol\":766:771  owner */\n      0x03\n      0x00\n      swap1\n      sload\n      swap1\n      0x0100\n      exp\n      swap1\n      div\n      0xffffffffffffffffffffffffffffffffffffffff\n      and\n        /* \"tabi/tabiContractForInteraction/gamble.sol\":752:771  msg.sender == owner */\n      0xffffffffffffffffffffffffffffffffffffffff\n      and\n        /* \"tabi/tabiContractForInteraction/gamble.sol\":752:762  msg.sender */\n      caller\n        /* \"tabi/tabiContractForInteraction/gamble.sol\":752:771  msg.sender == owner */\n      0xffffffffffffffffffffffffffffffffffffffff\n      and\n      eq\n        /* \"tabi/tabiContractForInteraction/gamble.sol\":744:772  require(msg.sender == owner) */\n      tag_47\n      jumpi\n      0x00\n      dup1\n      revert\n    tag_47:\n        /* \"tabi/tabiContractForInteraction/gamble.sol\":1289:1298  bool sent */\n      0x00\n        /* \"tabi/tabiContractForInteraction/gamble.sol\":1312:1322  msg.sender */\n      caller\n        /* \"tabi/tabiContractForInteraction/gamble.sol\":1304:1328  payable(msg.sender).call */\n      0xffffffffffffffffffffffffffffffffffffffff\n      and\n        /* \"tabi/tabiContractForInteraction/gamble.sol\":1336:1357  address(this).balance */\n      selfbalance\n        /* \"tabi/tabiContractForInteraction/gamble.sol\":1304:1362  payable(msg.sender).call{value: address(this).balance}(\"\") */\n      mload(0x40)\n      tag_49\n      swap1\n      tag_39\n      jump\t// in\n    tag_49:\n      0x00\n      mload(0x40)\n      dup1\n      dup4\n      sub\n      dup2\n      dup6\n      dup8\n      gas\n      call\n      swap3\n      pop\n      pop\n      pop\n      returndatasize\n      dup1\n      0x00\n      dup2\n      eq\n      tag_52\n      jumpi\n      mload(0x40)\n      swap2\n      pop\n      and(add(returndatasize, 0x3f), not(0x1f))\n      dup3\n      add\n      0x40\n      mstore\n      returndatasize\n      dup3\n      mstore\n      returndatasize\n      0x00\n      0x20\n      dup5\n      add\n      returndatacopy\n      jump(tag_51)\n    tag_52:\n      0x60\n      swap2\n      pop\n    tag_51:\n      pop\n        /* \"tabi/tabiContractForInteraction/gamble.sol\":1288:1362  (bool sent, ) = payable(msg.sender).call{value: address(this).balance}(\"\") */\n      pop\n      swap1\n      pop\n        /* \"tabi/tabiContractForInteraction/gamble.sol\":1380:1384  sent */\n      dup1\n        /* \"tabi/tabiContractForInteraction/gamble.sol\":1372:1409  require(sent, \"Failed to send Ether\") */\n      tag_53\n      jumpi\n      mload(0x40)\n      0x08c379a000000000000000000000000000000000000000000000000000000000\n      dup2\n      mstore\n      0x04\n      add\n      tag_54\n      swap1\n      tag_45\n      jump\t// in\n    tag_54:\n      mload(0x40)\n      dup1\n      swap2\n      sub\n      swap1\n      revert\n    tag_53:\n        /* \"tabi/tabiContractForInteraction/gamble.sol\":1278:1416  {... */\n      pop\n        /* \"tabi/tabiContractForInteraction/gamble.sol\":1234:1416  function SendAll() public payable onlyOwner {... */\n      jump\t// out\n        /* \"tabi/tabiContractForInteraction/gamble.sol\":614:707  function Ownable() public {... */\n    tag_13:\n        /* \"tabi/tabiContractForInteraction/gamble.sol\":658:700  0xc3556BA1e56F9FD263fF8196B3B783BD14D90AD8 */\n      0xc3556ba1e56f9fd263ff8196b3b783bd14d90ad8\n        /* \"tabi/tabiContractForInteraction/gamble.sol\":650:655  owner */\n      0x03\n      0x00\n        /* \"tabi/tabiContractForInteraction/gamble.sol\":650:700  owner = 0xc3556BA1e56F9FD263fF8196B3B783BD14D90AD8 */\n      0x0100\n      exp\n      dup2\n      sload\n      dup2\n      0xffffffffffffffffffffffffffffffffffffffff\n      mul\n      not\n      and\n      swap1\n      dup4\n      0xffffffffffffffffffffffffffffffffffffffff\n      and\n      mul\n      or\n      swap1\n      sstore\n      pop\n        /* \"tabi/tabiContractForInteraction/gamble.sol\":614:707  function Ownable() public {... */\n      jump\t// out\n        /* \"tabi/tabiContractForInteraction/gamble.sol\":587:607  address public owner */\n    tag_16:\n      0x03\n      0x00\n      swap1\n      sload\n      swap1\n      0x0100\n      exp\n      swap1\n      div\n      0xffffffffffffffffffffffffffffffffffffffff\n      and\n      dup2\n      jump\t// out\n        /* \"tabi/tabiContractForInteraction/gamble.sol\":1422:1473  function Deposit() public payable onlyOwner {... */\n    tag_20:\n        /* \"tabi/tabiContractForInteraction/gamble.sol\":766:771  owner */\n      0x03\n      0x00\n      swap1\n      sload\n      swap1\n      0x0100\n      exp\n      swap1\n      div\n      0xffffffffffffffffffffffffffffffffffffffff\n      and\n        /* \"tabi/tabiContractForInteraction/gamble.sol\":752:771  msg.sender == owner */\n      0xffffffffffffffffffffffffffffffffffffffff\n      and\n        /* \"tabi/tabiContractForInteraction/gamble.sol\":752:762  msg.sender */\n      caller\n        /* \"tabi/tabiContractForInteraction/gamble.sol\":752:771  msg.sender == owner */\n      0xffffffffffffffffffffffffffffffffffffffff\n      and\n      eq\n        /* \"tabi/tabiContractForInteraction/gamble.sol\":744:772  require(msg.sender == owner) */\n      tag_57\n      jumpi\n      0x00\n      dup1\n      revert\n    tag_57:\n        /* \"tabi/tabiContractForInteraction/gamble.sol\":1422:1473  function Deposit() public payable onlyOwner {... */\n      jump\t// out\n        /* \"tabi/tabiContractForInteraction/gamble.sol\":958:1228  function CheckResult() private returns (bool) {... */\n    tag_34:\n        /* \"tabi/tabiContractForInteraction/gamble.sol\":998:1002  bool */\n      0x00\n        /* \"tabi/tabiContractForInteraction/gamble.sol\":1014:1029  uint256 randNum */\n      dup1\n        /* \"tabi/tabiContractForInteraction/gamble.sol\":1032:1050  _generateRandNum() */\n      tag_60\n        /* \"tabi/tabiContractForInteraction/gamble.sol\":1032:1048  _generateRandNum */\n      tag_61\n        /* \"tabi/tabiContractForInteraction/gamble.sol\":1032:1050  _generateRandNum() */\n      jump\t// in\n    tag_60:\n        /* \"tabi/tabiContractForInteraction/gamble.sol\":1014:1050  uint256 randNum = _generateRandNum() */\n      swap1\n      pop\n        /* \"tabi/tabiContractForInteraction/gamble.sol\":1060:1071  bool result */\n      0x00\n        /* \"tabi/tabiContractForInteraction/gamble.sol\":1074:1078  true */\n      0x01\n        /* \"tabi/tabiContractForInteraction/gamble.sol\":1060:1078  bool result = true */\n      swap1\n      pop\n        /* \"tabi/tabiContractForInteraction/gamble.sol\":1107:1108  0 */\n      0x00\n        /* \"tabi/tabiContractForInteraction/gamble.sol\":1102:1103  2 */\n      0x02\n        /* \"tabi/tabiContractForInteraction/gamble.sol\":1092:1099  randNum */\n      dup4\n        /* \"tabi/tabiContractForInteraction/gamble.sol\":1092:1103  randNum % 2 */\n      tag_62\n      swap2\n      swap1\n      tag_63\n      jump\t// in\n    tag_62:\n        /* \"tabi/tabiContractForInteraction/gamble.sol\":1092:1108  randNum % 2 != 0 */\n      eq\n        /* \"tabi/tabiContractForInteraction/gamble.sol\":1088:1152  if (randNum % 2 != 0){... */\n      tag_64\n      jumpi\n        /* \"tabi/tabiContractForInteraction/gamble.sol\":1132:1137  false */\n      0x00\n        /* \"tabi/tabiContractForInteraction/gamble.sol\":1123:1137  result = false */\n      swap1\n      pop\n        /* \"tabi/tabiContractForInteraction/gamble.sol\":1088:1152  if (randNum % 2 != 0){... */\n    tag_64:\n        /* \"tabi/tabiContractForInteraction/gamble.sol\":1166:1198  GambleResult(msg.sender, result) */\n      0x7fac04408bfd13d7c9af89f69591bb2435ee9f294d18d596e427cb46a37e9212\n        /* \"tabi/tabiContractForInteraction/gamble.sol\":1179:1189  msg.sender */\n      caller\n        /* \"tabi/tabiContractForInteraction/gamble.sol\":1191:1197  result */\n      dup3\n        /* \"tabi/tabiContractForInteraction/gamble.sol\":1166:1198  GambleResult(msg.sender, result) */\n      mload(0x40)\n      tag_65\n      swap3\n      swap2\n      swap1\n      tag_66\n      jump\t// in\n    tag_65:\n      mload(0x40)\n      dup1\n      swap2\n      sub\n      swap1\n      log1\n        /* \"tabi/tabiContractForInteraction/gamble.sol\":1215:1221  result */\n      dup1\n        /* \"tabi/tabiContractForInteraction/gamble.sol\":1208:1221  return result */\n      swap3\n      pop\n      pop\n      pop\n        /* \"tabi/tabiContractForInteraction/gamble.sol\":958:1228  function CheckResult() private returns (bool) {... */\n      swap1\n      jump\t// out\n        /* \"tabi/tabiContractForInteraction/gamble.sol\":796:952  function _generateRandNum() private view returns (uint) {... */\n    tag_61:\n        /* \"tabi/tabiContractForInteraction/gamble.sol\":846:850  uint */\n      0x00\n        /* \"tabi/tabiContractForInteraction/gamble.sol\":942:945  100 */\n      0x64\n        /* \"tabi/tabiContractForInteraction/gamble.sol\":901:916  block.timestamp */\n      timestamp\n        /* \"tabi/tabiContractForInteraction/gamble.sol\":918:928  msg.sender */\n      caller\n        /* \"tabi/tabiContractForInteraction/gamble.sol\":930:936  _nonce */\n      sload(0x02)\n        /* \"tabi/tabiContractForInteraction/gamble.sol\":884:937  abi.encodePacked(block.timestamp, msg.sender, _nonce) */\n      add(0x20, mload(0x40))\n      tag_68\n      swap4\n      swap3\n      swap2\n      swap1\n      tag_69\n      jump\t// in\n    tag_68:\n      mload(0x40)\n      0x20\n      dup2\n      dup4\n      sub\n      sub\n      dup2\n      mstore\n      swap1\n      0x40\n      mstore\n        /* \"tabi/tabiContractForInteraction/gamble.sol\":874:938  keccak256(abi.encodePacked(block.timestamp, msg.sender, _nonce)) */\n      dup1\n      mload\n      swap1\n      0x20\n      add\n      keccak256\n        /* \"tabi/tabiContractForInteraction/gamble.sol\":869:939  uint(keccak256(abi.encodePacked(block.timestamp, msg.sender, _nonce))) */\n      0x00\n      shr\n        /* \"tabi/tabiContractForInteraction/gamble.sol\":869:945  uint(keccak256(abi.encodePacked(block.timestamp, msg.sender, _nonce))) % 100 */\n      tag_70\n      swap2\n      swap1\n      tag_63\n      jump\t// in\n    tag_70:\n        /* \"tabi/tabiContractForInteraction/gamble.sol\":862:945  return uint(keccak256(abi.encodePacked(block.timestamp, msg.sender, _nonce))) % 100 */\n      swap1\n      pop\n        /* \"tabi/tabiContractForInteraction/gamble.sol\":796:952  function _generateRandNum() private view returns (uint) {... */\n      swap1\n      jump\t// out\n        /* \"#utility.yul\":7:133   */\n    tag_71:\n        /* \"#utility.yul\":44:51   */\n      0x00\n        /* \"#utility.yul\":84:126   */\n      0xffffffffffffffffffffffffffffffffffffffff\n        /* \"#utility.yul\":77:82   */\n      dup3\n        /* \"#utility.yul\":73:127   */\n      and\n        /* \"#utility.yul\":62:127   */\n      swap1\n      pop\n        /* \"#utility.yul\":7:133   */\n      swap2\n      swap1\n      pop\n      jump\t// out\n        /* \"#utility.yul\":139:235   */\n    tag_72:\n        /* \"#utility.yul\":176:183   */\n      0x00\n        /* \"#utility.yul\":205:229   */\n      tag_101\n        /* \"#utility.yul\":223:228   */\n      dup3\n        /* \"#utility.yul\":205:229   */\n      tag_71\n      jump\t// in\n    tag_101:\n        /* \"#utility.yul\":194:229   */\n      swap1\n      pop\n        /* \"#utility.yul\":139:235   */\n      swap2\n      swap1\n      pop\n      jump\t// out\n        /* \"#utility.yul\":241:359   */\n    tag_73:\n        /* \"#utility.yul\":328:352   */\n      tag_103\n        /* \"#utility.yul\":346:351   */\n      dup2\n        /* \"#utility.yul\":328:352   */\n      tag_72\n      jump\t// in\n    tag_103:\n        /* \"#utility.yul\":323:326   */\n      dup3\n        /* \"#utility.yul\":316:353   */\n      mstore\n        /* \"#utility.yul\":241:359   */\n      pop\n      pop\n      jump\t// out\n        /* \"#utility.yul\":365:587   */\n    tag_18:\n        /* \"#utility.yul\":458:462   */\n      0x00\n        /* \"#utility.yul\":496:498   */\n      0x20\n        /* \"#utility.yul\":485:494   */\n      dup3\n        /* \"#utility.yul\":481:499   */\n      add\n        /* \"#utility.yul\":473:499   */\n      swap1\n      pop\n        /* \"#utility.yul\":509:580   */\n      tag_105\n        /* \"#utility.yul\":577:578   */\n      0x00\n        /* \"#utility.yul\":566:575   */\n      dup4\n        /* \"#utility.yul\":562:579   */\n      add\n        /* \"#utility.yul\":553:559   */\n      dup5\n        /* \"#utility.yul\":509:580   */\n      tag_73\n      jump\t// in\n    tag_105:\n        /* \"#utility.yul\":365:587   */\n      swap3\n      swap2\n      pop\n      pop\n      jump\t// out\n        /* \"#utility.yul\":593:762   */\n    tag_74:\n        /* \"#utility.yul\":677:688   */\n      0x00\n        /* \"#utility.yul\":711:717   */\n      dup3\n        /* \"#utility.yul\":706:709   */\n      dup3\n        /* \"#utility.yul\":699:718   */\n      mstore\n        /* \"#utility.yul\":751:755   */\n      0x20\n        /* \"#utility.yul\":746:749   */\n      dup3\n        /* \"#utility.yul\":742:756   */\n      add\n        /* \"#utility.yul\":727:756   */\n      swap1\n      pop\n        /* \"#utility.yul\":593:762   */\n      swap3\n      swap2\n      pop\n      pop\n      jump\t// out\n        /* \"#utility.yul\":768:991   */\n    tag_75:\n        /* \"#utility.yul\":908:942   */\n      0x67616d626c6520616d6f756e74206861766520746f206c6f776572207468616e\n        /* \"#utility.yul\":904:905   */\n      0x00\n        /* \"#utility.yul\":896:902   */\n      dup3\n        /* \"#utility.yul\":892:906   */\n      add\n        /* \"#utility.yul\":885:943   */\n      mstore\n        /* \"#utility.yul\":977:983   */\n      0x20302e3100000000000000000000000000000000000000000000000000000000\n        /* \"#utility.yul\":972:974   */\n      0x20\n        /* \"#utility.yul\":964:970   */\n      dup3\n        /* \"#utility.yul\":960:975   */\n      add\n        /* \"#utility.yul\":953:984   */\n      mstore\n        /* \"#utility.yul\":768:991   */\n      pop\n      jump\t// out\n        /* \"#utility.yul\":997:1363   */\n    tag_76:\n        /* \"#utility.yul\":1139:1142   */\n      0x00\n        /* \"#utility.yul\":1160:1227   */\n      tag_109\n        /* \"#utility.yul\":1224:1226   */\n      0x24\n        /* \"#utility.yul\":1219:1222   */\n      dup4\n        /* \"#utility.yul\":1160:1227   */\n      tag_74\n      jump\t// in\n    tag_109:\n        /* \"#utility.yul\":1153:1227   */\n      swap2\n      pop\n        /* \"#utility.yul\":1236:1329   */\n      tag_110\n        /* \"#utility.yul\":1325:1328   */\n      dup3\n        /* \"#utility.yul\":1236:1329   */\n      tag_75\n      jump\t// in\n    tag_110:\n        /* \"#utility.yul\":1354:1356   */\n      0x40\n        /* \"#utility.yul\":1349:1352   */\n      dup3\n        /* \"#utility.yul\":1345:1357   */\n      add\n        /* \"#utility.yul\":1338:1357   */\n      swap1\n      pop\n        /* \"#utility.yul\":997:1363   */\n      swap2\n      swap1\n      pop\n      jump\t// out\n        /* \"#utility.yul\":1369:1788   */\n    tag_24:\n        /* \"#utility.yul\":1535:1539   */\n      0x00\n        /* \"#utility.yul\":1573:1575   */\n      0x20\n        /* \"#utility.yul\":1562:1571   */\n      dup3\n        /* \"#utility.yul\":1558:1576   */\n      add\n        /* \"#utility.yul\":1550:1576   */\n      swap1\n      pop\n        /* \"#utility.yul\":1622:1631   */\n      dup2\n        /* \"#utility.yul\":1616:1620   */\n      dup2\n        /* \"#utility.yul\":1612:1632   */\n      sub\n        /* \"#utility.yul\":1608:1609   */\n      0x00\n        /* \"#utility.yul\":1597:1606   */\n      dup4\n        /* \"#utility.yul\":1593:1610   */\n      add\n        /* \"#utility.yul\":1586:1633   */\n      mstore\n        /* \"#utility.yul\":1650:1781   */\n      tag_112\n        /* \"#utility.yul\":1776:1780   */\n      dup2\n        /* \"#utility.yul\":1650:1781   */\n      tag_76\n      jump\t// in\n    tag_112:\n        /* \"#utility.yul\":1642:1781   */\n      swap1\n      pop\n        /* \"#utility.yul\":1369:1788   */\n      swap2\n      swap1\n      pop\n      jump\t// out\n        /* \"#utility.yul\":1794:2014   */\n    tag_77:\n        /* \"#utility.yul\":1934:1968   */\n      0x657863656564656420636f6e74726163742077616c6c6574277320616d6f756e\n        /* \"#utility.yul\":1930:1931   */\n      0x00\n        /* \"#utility.yul\":1922:1928   */\n      dup3\n        /* \"#utility.yul\":1918:1932   */\n      add\n        /* \"#utility.yul\":1911:1969   */\n      mstore\n        /* \"#utility.yul\":2003:2006   */\n      0x7400000000000000000000000000000000000000000000000000000000000000\n        /* \"#utility.yul\":1998:2000   */\n      0x20\n        /* \"#utility.yul\":1990:1996   */\n      dup3\n        /* \"#utility.yul\":1986:2001   */\n      add\n        /* \"#utility.yul\":1979:2007   */\n      mstore\n        /* \"#utility.yul\":1794:2014   */\n      pop\n      jump\t// out\n        /* \"#utility.yul\":2020:2386   */\n    tag_78:\n        /* \"#utility.yul\":2162:2165   */\n      0x00\n        /* \"#utility.yul\":2183:2250   */\n      tag_115\n        /* \"#utility.yul\":2247:2249   */\n      0x21\n        /* \"#utility.yul\":2242:2245   */\n      dup4\n        /* \"#utility.yul\":2183:2250   */\n      tag_74\n      jump\t// in\n    tag_115:\n        /* \"#utility.yul\":2176:2250   */\n      swap2\n      pop\n        /* \"#utility.yul\":2259:2352   */\n      tag_116\n        /* \"#utility.yul\":2348:2351   */\n      dup3\n        /* \"#utility.yul\":2259:2352   */\n      tag_77\n      jump\t// in\n    tag_116:\n        /* \"#utility.yul\":2377:2379   */\n      0x40\n        /* \"#utility.yul\":2372:2375   */\n      dup3\n        /* \"#utility.yul\":2368:2380   */\n      add\n        /* \"#utility.yul\":2361:2380   */\n      swap1\n      pop\n        /* \"#utility.yul\":2020:2386   */\n      swap2\n      swap1\n      pop\n      jump\t// out\n        /* \"#utility.yul\":2392:2811   */\n    tag_27:\n        /* \"#utility.yul\":2558:2562   */\n      0x00\n        /* \"#utility.yul\":2596:2598   */\n      0x20\n        /* \"#utility.yul\":2585:2594   */\n      dup3\n        /* \"#utility.yul\":2581:2599   */\n      add\n        /* \"#utility.yul\":2573:2599   */\n      swap1\n      pop\n        /* \"#utility.yul\":2645:2654   */\n      dup2\n        /* \"#utility.yul\":2639:2643   */\n      dup2\n        /* \"#utility.yul\":2635:2655   */\n      sub\n        /* \"#utility.yul\":2631:2632   */\n      0x00\n        /* \"#utility.yul\":2620:2629   */\n      dup4\n        /* \"#utility.yul\":2616:2633   */\n      add\n        /* \"#utility.yul\":2609:2656   */\n      mstore\n        /* \"#utility.yul\":2673:2804   */\n      tag_118\n        /* \"#utility.yul\":2799:2803   */\n      dup2\n        /* \"#utility.yul\":2673:2804   */\n      tag_78\n      jump\t// in\n    tag_118:\n        /* \"#utility.yul\":2665:2804   */\n      swap1\n      pop\n        /* \"#utility.yul\":2392:2811   */\n      swap2\n      swap1\n      pop\n      jump\t// out\n        /* \"#utility.yul\":2817:2994   */\n    tag_79:\n        /* \"#utility.yul\":2957:2986   */\n      0x657863656564656420796f75722077616c6c657420616d6f756e740000000000\n        /* \"#utility.yul\":2953:2954   */\n      0x00\n        /* \"#utility.yul\":2945:2951   */\n      dup3\n        /* \"#utility.yul\":2941:2955   */\n      add\n        /* \"#utility.yul\":2934:2987   */\n      mstore\n        /* \"#utility.yul\":2817:2994   */\n      pop\n      jump\t// out\n        /* \"#utility.yul\":3000:3366   */\n    tag_80:\n        /* \"#utility.yul\":3142:3145   */\n      0x00\n        /* \"#utility.yul\":3163:3230   */\n      tag_121\n        /* \"#utility.yul\":3227:3229   */\n      0x1b\n        /* \"#utility.yul\":3222:3225   */\n      dup4\n        /* \"#utility.yul\":3163:3230   */\n      tag_74\n      jump\t// in\n    tag_121:\n        /* \"#utility.yul\":3156:3230   */\n      swap2\n      pop\n        /* \"#utility.yul\":3239:3332   */\n      tag_122\n        /* \"#utility.yul\":3328:3331   */\n      dup3\n        /* \"#utility.yul\":3239:3332   */\n      tag_79\n      jump\t// in\n    tag_122:\n        /* \"#utility.yul\":3357:3359   */\n      0x20\n        /* \"#utility.yul\":3352:3355   */\n      dup3\n        /* \"#utility.yul\":3348:3360   */\n      add\n        /* \"#utility.yul\":3341:3360   */\n      swap1\n      pop\n        /* \"#utility.yul\":3000:3366   */\n      swap2\n      swap1\n      pop\n      jump\t// out\n        /* \"#utility.yul\":3372:3791   */\n    tag_30:\n        /* \"#utility.yul\":3538:3542   */\n      0x00\n        /* \"#utility.yul\":3576:3578   */\n      0x20\n        /* \"#utility.yul\":3565:3574   */\n      dup3\n        /* \"#utility.yul\":3561:3579   */\n      add\n        /* \"#utility.yul\":3553:3579   */\n      swap1\n      pop\n        /* \"#utility.yul\":3625:3634   */\n      dup2\n        /* \"#utility.yul\":3619:3623   */\n      dup2\n        /* \"#utility.yul\":3615:3635   */\n      sub\n        /* \"#utility.yul\":3611:3612   */\n      0x00\n        /* \"#utility.yul\":3600:3609   */\n      dup4\n        /* \"#utility.yul\":3596:3613   */\n      add\n        /* \"#utility.yul\":3589:3636   */\n      mstore\n        /* \"#utility.yul\":3653:3784   */\n      tag_124\n        /* \"#utility.yul\":3779:3783   */\n      dup2\n        /* \"#utility.yul\":3653:3784   */\n      tag_80\n      jump\t// in\n    tag_124:\n        /* \"#utility.yul\":3645:3784   */\n      swap1\n      pop\n        /* \"#utility.yul\":3372:3791   */\n      swap2\n      swap1\n      pop\n      jump\t// out\n        /* \"#utility.yul\":3797:3874   */\n    tag_81:\n        /* \"#utility.yul\":3834:3841   */\n      0x00\n        /* \"#utility.yul\":3863:3868   */\n      dup2\n        /* \"#utility.yul\":3852:3868   */\n      swap1\n      pop\n        /* \"#utility.yul\":3797:3874   */\n      swap2\n      swap1\n      pop\n      jump\t// out\n        /* \"#utility.yul\":3880:3998   */\n    tag_82:\n        /* \"#utility.yul\":3967:3991   */\n      tag_127\n        /* \"#utility.yul\":3985:3990   */\n      dup2\n        /* \"#utility.yul\":3967:3991   */\n      tag_81\n      jump\t// in\n    tag_127:\n        /* \"#utility.yul\":3962:3965   */\n      dup3\n        /* \"#utility.yul\":3955:3992   */\n      mstore\n        /* \"#utility.yul\":3880:3998   */\n      pop\n      pop\n      jump\t// out\n        /* \"#utility.yul\":4004:4336   */\n    tag_32:\n        /* \"#utility.yul\":4125:4129   */\n      0x00\n        /* \"#utility.yul\":4163:4165   */\n      0x40\n        /* \"#utility.yul\":4152:4161   */\n      dup3\n        /* \"#utility.yul\":4148:4166   */\n      add\n        /* \"#utility.yul\":4140:4166   */\n      swap1\n      pop\n        /* \"#utility.yul\":4176:4247   */\n      tag_129\n        /* \"#utility.yul\":4244:4245   */\n      0x00\n        /* \"#utility.yul\":4233:4242   */\n      dup4\n        /* \"#utility.yul\":4229:4246   */\n      add\n        /* \"#utility.yul\":4220:4226   */\n      dup6\n        /* \"#utility.yul\":4176:4247   */\n      tag_73\n      jump\t// in\n    tag_129:\n        /* \"#utility.yul\":4257:4329   */\n      tag_130\n        /* \"#utility.yul\":4325:4327   */\n      0x20\n        /* \"#utility.yul\":4314:4323   */\n      dup4\n        /* \"#utility.yul\":4310:4328   */\n      add\n        /* \"#utility.yul\":4301:4307   */\n      dup5\n        /* \"#utility.yul\":4257:4329   */\n      tag_82\n      jump\t// in\n    tag_130:\n        /* \"#utility.yul\":4004:4336   */\n      swap4\n      swap3\n      pop\n      pop\n      pop\n      jump\t// out\n        /* \"#utility.yul\":4342:4522   */\n    tag_83:\n        /* \"#utility.yul\":4390:4467   */\n      0x4e487b7100000000000000000000000000000000000000000000000000000000\n        /* \"#utility.yul\":4387:4388   */\n      0x00\n        /* \"#utility.yul\":4380:4468   */\n      mstore\n        /* \"#utility.yul\":4487:4491   */\n      0x11\n        /* \"#utility.yul\":4484:4485   */\n      0x04\n        /* \"#utility.yul\":4477:4492   */\n      mstore\n        /* \"#utility.yul\":4511:4515   */\n      0x24\n        /* \"#utility.yul\":4508:4509   */\n      0x00\n        /* \"#utility.yul\":4501:4516   */\n      revert\n        /* \"#utility.yul\":4528:4938   */\n    tag_37:\n        /* \"#utility.yul\":4568:4575   */\n      0x00\n        /* \"#utility.yul\":4591:4611   */\n      tag_133\n        /* \"#utility.yul\":4609:4610   */\n      dup3\n        /* \"#utility.yul\":4591:4611   */\n      tag_81\n      jump\t// in\n    tag_133:\n        /* \"#utility.yul\":4586:4611   */\n      swap2\n      pop\n        /* \"#utility.yul\":4625:4645   */\n      tag_134\n        /* \"#utility.yul\":4643:4644   */\n      dup4\n        /* \"#utility.yul\":4625:4645   */\n      tag_81\n      jump\t// in\n    tag_134:\n        /* \"#utility.yul\":4620:4645   */\n      swap3\n      pop\n        /* \"#utility.yul\":4680:4681   */\n      dup3\n        /* \"#utility.yul\":4677:4678   */\n      dup3\n        /* \"#utility.yul\":4673:4682   */\n      mul\n        /* \"#utility.yul\":4702:4732   */\n      tag_135\n        /* \"#utility.yul\":4720:4731   */\n      dup2\n        /* \"#utility.yul\":4702:4732   */\n      tag_81\n      jump\t// in\n    tag_135:\n        /* \"#utility.yul\":4691:4732   */\n      swap2\n      pop\n        /* \"#utility.yul\":4881:4882   */\n      dup3\n        /* \"#utility.yul\":4872:4879   */\n      dup3\n        /* \"#utility.yul\":4868:4883   */\n      div\n        /* \"#utility.yul\":4865:4866   */\n      dup5\n        /* \"#utility.yul\":4862:4884   */\n      eq\n        /* \"#utility.yul\":4842:4843   */\n      dup4\n        /* \"#utility.yul\":4835:4844   */\n      iszero\n        /* \"#utility.yul\":4815:4898   */\n      or\n        /* \"#utility.yul\":4792:4931   */\n      tag_136\n      jumpi\n        /* \"#utility.yul\":4911:4929   */\n      tag_137\n      tag_83\n      jump\t// in\n    tag_137:\n        /* \"#utility.yul\":4792:4931   */\n    tag_136:\n        /* \"#utility.yul\":4576:4938   */\n      pop\n        /* \"#utility.yul\":4528:4938   */\n      swap3\n      swap2\n      pop\n      pop\n      jump\t// out\n        /* \"#utility.yul\":4944:5091   */\n    tag_84:\n        /* \"#utility.yul\":5045:5056   */\n      0x00\n        /* \"#utility.yul\":5082:5085   */\n      dup2\n        /* \"#utility.yul\":5067:5085   */\n      swap1\n      pop\n        /* \"#utility.yul\":4944:5091   */\n      swap3\n      swap2\n      pop\n      pop\n      jump\t// out\n        /* \"#utility.yul\":5097:5211   */\n    tag_85:\n      pop\n      jump\t// out\n        /* \"#utility.yul\":5217:5615   */\n    tag_86:\n        /* \"#utility.yul\":5376:5379   */\n      0x00\n        /* \"#utility.yul\":5397:5480   */\n      tag_141\n        /* \"#utility.yul\":5478:5479   */\n      0x00\n        /* \"#utility.yul\":5473:5476   */\n      dup4\n        /* \"#utility.yul\":5397:5480   */\n      tag_84\n      jump\t// in\n    tag_141:\n        /* \"#utility.yul\":5390:5480   */\n      swap2\n      pop\n        /* \"#utility.yul\":5489:5582   */\n      tag_142\n        /* \"#utility.yul\":5578:5581   */\n      dup3\n        /* \"#utility.yul\":5489:5582   */\n      tag_85\n      jump\t// in\n    tag_142:\n        /* \"#utility.yul\":5607:5608   */\n      0x00\n        /* \"#utility.yul\":5602:5605   */\n      dup3\n        /* \"#utility.yul\":5598:5609   */\n      add\n        /* \"#utility.yul\":5591:5609   */\n      swap1\n      pop\n        /* \"#utility.yul\":5217:5615   */\n      swap2\n      swap1\n      pop\n      jump\t// out\n        /* \"#utility.yul\":5621:6000   */\n    tag_39:\n        /* \"#utility.yul\":5805:5808   */\n      0x00\n        /* \"#utility.yul\":5827:5974   */\n      tag_144\n        /* \"#utility.yul\":5970:5973   */\n      dup3\n        /* \"#utility.yul\":5827:5974   */\n      tag_86\n      jump\t// in\n    tag_144:\n        /* \"#utility.yul\":5820:5974   */\n      swap2\n      pop\n        /* \"#utility.yul\":5991:5994   */\n      dup2\n        /* \"#utility.yul\":5984:5994   */\n      swap1\n      pop\n        /* \"#utility.yul\":5621:6000   */\n      swap2\n      swap1\n      pop\n      jump\t// out\n        /* \"#utility.yul\":6006:6176   */\n    tag_87:\n        /* \"#utility.yul\":6146:6168   */\n      0x4661696c656420746f2073656e64204574686572000000000000000000000000\n        /* \"#utility.yul\":6142:6143   */\n      0x00\n        /* \"#utility.yul\":6134:6140   */\n      dup3\n        /* \"#utility.yul\":6130:6144   */\n      add\n        /* \"#utility.yul\":6123:6169   */\n      mstore\n        /* \"#utility.yul\":6006:6176   */\n      pop\n      jump\t// out\n        /* \"#utility.yul\":6182:6548   */\n    tag_88:\n        /* \"#utility.yul\":6324:6327   */\n      0x00\n        /* \"#utility.yul\":6345:6412   */\n      tag_147\n        /* \"#utility.yul\":6409:6411   */\n      0x14\n        /* \"#utility.yul\":6404:6407   */\n      dup4\n        /* \"#utility.yul\":6345:6412   */\n      tag_74\n      jump\t// in\n    tag_147:\n        /* \"#utility.yul\":6338:6412   */\n      swap2\n      pop\n        /* \"#utility.yul\":6421:6514   */\n      tag_148\n        /* \"#utility.yul\":6510:6513   */\n      dup3\n        /* \"#utility.yul\":6421:6514   */\n      tag_87\n      jump\t// in\n    tag_148:\n        /* \"#utility.yul\":6539:6541   */\n      0x20\n        /* \"#utility.yul\":6534:6537   */\n      dup3\n        /* \"#utility.yul\":6530:6542   */\n      add\n        /* \"#utility.yul\":6523:6542   */\n      swap1\n      pop\n        /* \"#utility.yul\":6182:6548   */\n      swap2\n      swap1\n      pop\n      jump\t// out\n        /* \"#utility.yul\":6554:6973   */\n    tag_45:\n        /* \"#utility.yul\":6720:6724   */\n      0x00\n        /* \"#utility.yul\":6758:6760   */\n      0x20\n        /* \"#utility.yul\":6747:6756   */\n      dup3\n        /* \"#utility.yul\":6743:6761   */\n      add\n        /* \"#utility.yul\":6735:6761   */\n      swap1\n      pop\n        /* \"#utility.yul\":6807:6816   */\n      dup2\n        /* \"#utility.yul\":6801:6805   */\n      dup2\n        /* \"#utility.yul\":6797:6817   */\n      sub\n        /* \"#utility.yul\":6793:6794   */\n      0x00\n        /* \"#utility.yul\":6782:6791   */\n      dup4\n        /* \"#utility.yul\":6778:6795   */\n      add\n        /* \"#utility.yul\":6771:6818   */\n      mstore\n        /* \"#utility.yul\":6835:6966   */\n      tag_150\n        /* \"#utility.yul\":6961:6965   */\n      dup2\n        /* \"#utility.yul\":6835:6966   */\n      tag_88\n      jump\t// in\n    tag_150:\n        /* \"#utility.yul\":6827:6966   */\n      swap1\n      pop\n        /* \"#utility.yul\":6554:6973   */\n      swap2\n      swap1\n      pop\n      jump\t// out\n        /* \"#utility.yul\":6979:7159   */\n    tag_89:\n        /* \"#utility.yul\":7027:7104   */\n      0x4e487b7100000000000000000000000000000000000000000000000000000000\n        /* \"#utility.yul\":7024:7025   */\n      0x00\n        /* \"#utility.yul\":7017:7105   */\n      mstore\n        /* \"#utility.yul\":7124:7128   */\n      0x12\n        /* \"#utility.yul\":7121:7122   */\n      0x04\n        /* \"#utility.yul\":7114:7129   */\n      mstore\n        /* \"#utility.yul\":7148:7152   */\n      0x24\n        /* \"#utility.yul\":7145:7146   */\n      0x00\n        /* \"#utility.yul\":7138:7153   */\n      revert\n        /* \"#utility.yul\":7165:7341   */\n    tag_63:\n        /* \"#utility.yul\":7197:7198   */\n      0x00\n        /* \"#utility.yul\":7214:7234   */\n      tag_153\n        /* \"#utility.yul\":7232:7233   */\n      dup3\n        /* \"#utility.yul\":7214:7234   */\n      tag_81\n      jump\t// in\n    tag_153:\n        /* \"#utility.yul\":7209:7234   */\n      swap2\n      pop\n        /* \"#utility.yul\":7248:7268   */\n      tag_154\n        /* \"#utility.yul\":7266:7267   */\n      dup4\n        /* \"#utility.yul\":7248:7268   */\n      tag_81\n      jump\t// in\n    tag_154:\n        /* \"#utility.yul\":7243:7268   */\n      swap3\n      pop\n        /* \"#utility.yul\":7287:7288   */\n      dup3\n        /* \"#utility.yul\":7277:7312   */\n      tag_155\n      jumpi\n        /* \"#utility.yul\":7292:7310   */\n      tag_156\n      tag_89\n      jump\t// in\n    tag_156:\n        /* \"#utility.yul\":7277:7312   */\n    tag_155:\n        /* \"#utility.yul\":7333:7334   */\n      dup3\n        /* \"#utility.yul\":7330:7331   */\n      dup3\n        /* \"#utility.yul\":7326:7335   */\n      mod\n        /* \"#utility.yul\":7321:7335   */\n      swap1\n      pop\n        /* \"#utility.yul\":7165:7341   */\n      swap3\n      swap2\n      pop\n      pop\n      jump\t// out\n        /* \"#utility.yul\":7347:7437   */\n    tag_90:\n        /* \"#utility.yul\":7381:7388   */\n      0x00\n        /* \"#utility.yul\":7424:7429   */\n      dup2\n        /* \"#utility.yul\":7417:7430   */\n      iszero\n        /* \"#utility.yul\":7410:7431   */\n      iszero\n        /* \"#utility.yul\":7399:7431   */\n      swap1\n      pop\n        /* \"#utility.yul\":7347:7437   */\n      swap2\n      swap1\n      pop\n      jump\t// out\n        /* \"#utility.yul\":7443:7552   */\n    tag_91:\n        /* \"#utility.yul\":7524:7545   */\n      tag_159\n        /* \"#utility.yul\":7539:7544   */\n      dup2\n        /* \"#utility.yul\":7524:7545   */\n      tag_90\n      jump\t// in\n    tag_159:\n        /* \"#utility.yul\":7519:7522   */\n      dup3\n        /* \"#utility.yul\":7512:7546   */\n      mstore\n        /* \"#utility.yul\":7443:7552   */\n      pop\n      pop\n      jump\t// out\n        /* \"#utility.yul\":7558:7878   */\n    tag_66:\n        /* \"#utility.yul\":7673:7677   */\n      0x00\n        /* \"#utility.yul\":7711:7713   */\n      0x40\n        /* \"#utility.yul\":7700:7709   */\n      dup3\n        /* \"#utility.yul\":7696:7714   */\n      add\n        /* \"#utility.yul\":7688:7714   */\n      swap1\n      pop\n        /* \"#utility.yul\":7724:7795   */\n      tag_161\n        /* \"#utility.yul\":7792:7793   */\n      0x00\n        /* \"#utility.yul\":7781:7790   */\n      dup4\n        /* \"#utility.yul\":7777:7794   */\n      add\n        /* \"#utility.yul\":7768:7774   */\n      dup6\n        /* \"#utility.yul\":7724:7795   */\n      tag_73\n      jump\t// in\n    tag_161:\n        /* \"#utility.yul\":7805:7871   */\n      tag_162\n        /* \"#utility.yul\":7867:7869   */\n      0x20\n        /* \"#utility.yul\":7856:7865   */\n      dup4\n        /* \"#utility.yul\":7852:7870   */\n      add\n        /* \"#utility.yul\":7843:7849   */\n      dup5\n        /* \"#utility.yul\":7805:7871   */\n      tag_91\n      jump\t// in\n    tag_162:\n        /* \"#utility.yul\":7558:7878   */\n      swap4\n      swap3\n      pop\n      pop\n      pop\n      jump\t// out\n        /* \"#utility.yul\":7884:7963   */\n    tag_92:\n        /* \"#utility.yul\":7923:7930   */\n      0x00\n        /* \"#utility.yul\":7952:7957   */\n      dup2\n        /* \"#utility.yul\":7941:7957   */\n      swap1\n      pop\n        /* \"#utility.yul\":7884:7963   */\n      swap2\n      swap1\n      pop\n      jump\t// out\n        /* \"#utility.yul\":7969:8126   */\n    tag_93:\n        /* \"#utility.yul\":8074:8119   */\n      tag_165\n        /* \"#utility.yul\":8094:8118   */\n      tag_166\n        /* \"#utility.yul\":8112:8117   */\n      dup3\n        /* \"#utility.yul\":8094:8118   */\n      tag_81\n      jump\t// in\n    tag_166:\n        /* \"#utility.yul\":8074:8119   */\n      tag_92\n      jump\t// in\n    tag_165:\n        /* \"#utility.yul\":8069:8072   */\n      dup3\n        /* \"#utility.yul\":8062:8120   */\n      mstore\n        /* \"#utility.yul\":7969:8126   */\n      pop\n      pop\n      jump\t// out\n        /* \"#utility.yul\":8132:8226   */\n    tag_94:\n        /* \"#utility.yul\":8165:8173   */\n      0x00\n        /* \"#utility.yul\":8213:8218   */\n      dup2\n        /* \"#utility.yul\":8209:8211   */\n      0x60\n        /* \"#utility.yul\":8205:8219   */\n      shl\n        /* \"#utility.yul\":8184:8219   */\n      swap1\n      pop\n        /* \"#utility.yul\":8132:8226   */\n      swap2\n      swap1\n      pop\n      jump\t// out\n        /* \"#utility.yul\":8232:8326   */\n    tag_95:\n        /* \"#utility.yul\":8271:8278   */\n      0x00\n        /* \"#utility.yul\":8300:8320   */\n      tag_169\n        /* \"#utility.yul\":8314:8319   */\n      dup3\n        /* \"#utility.yul\":8300:8320   */\n      tag_94\n      jump\t// in\n    tag_169:\n        /* \"#utility.yul\":8289:8320   */\n      swap1\n      pop\n        /* \"#utility.yul\":8232:8326   */\n      swap2\n      swap1\n      pop\n      jump\t// out\n        /* \"#utility.yul\":8332:8432   */\n    tag_96:\n        /* \"#utility.yul\":8371:8378   */\n      0x00\n        /* \"#utility.yul\":8400:8426   */\n      tag_171\n        /* \"#utility.yul\":8420:8425   */\n      dup3\n        /* \"#utility.yul\":8400:8426   */\n      tag_95\n      jump\t// in\n    tag_171:\n        /* \"#utility.yul\":8389:8426   */\n      swap1\n      pop\n        /* \"#utility.yul\":8332:8432   */\n      swap2\n      swap1\n      pop\n      jump\t// out\n        /* \"#utility.yul\":8438:8595   */\n    tag_97:\n        /* \"#utility.yul\":8543:8588   */\n      tag_173\n        /* \"#utility.yul\":8563:8587   */\n      tag_174\n        /* \"#utility.yul\":8581:8586   */\n      dup3\n        /* \"#utility.yul\":8563:8587   */\n      tag_72\n      jump\t// in\n    tag_174:\n        /* \"#utility.yul\":8543:8588   */\n      tag_96\n      jump\t// in\n    tag_173:\n        /* \"#utility.yul\":8538:8541   */\n      dup3\n        /* \"#utility.yul\":8531:8589   */\n      mstore\n        /* \"#utility.yul\":8438:8595   */\n      pop\n      pop\n      jump\t// out\n        /* \"#utility.yul\":8601:9139   */\n    tag_69:\n        /* \"#utility.yul\":8769:8772   */\n      0x00\n        /* \"#utility.yul\":8784:8859   */\n      tag_176\n        /* \"#utility.yul\":8855:8858   */\n      dup3\n        /* \"#utility.yul\":8846:8852   */\n      dup7\n        /* \"#utility.yul\":8784:8859   */\n      tag_93\n      jump\t// in\n    tag_176:\n        /* \"#utility.yul\":8884:8886   */\n      0x20\n        /* \"#utility.yul\":8879:8882   */\n      dup3\n        /* \"#utility.yul\":8875:8887   */\n      add\n        /* \"#utility.yul\":8868:8887   */\n      swap2\n      pop\n        /* \"#utility.yul\":8897:8972   */\n      tag_177\n        /* \"#utility.yul\":8968:8971   */\n      dup3\n        /* \"#utility.yul\":8959:8965   */\n      dup6\n        /* \"#utility.yul\":8897:8972   */\n      tag_97\n      jump\t// in\n    tag_177:\n        /* \"#utility.yul\":8997:8999   */\n      0x14\n        /* \"#utility.yul\":8992:8995   */\n      dup3\n        /* \"#utility.yul\":8988:9000   */\n      add\n        /* \"#utility.yul\":8981:9000   */\n      swap2\n      pop\n        /* \"#utility.yul\":9010:9085   */\n      tag_178\n        /* \"#utility.yul\":9081:9084   */\n      dup3\n        /* \"#utility.yul\":9072:9078   */\n      dup5\n        /* \"#utility.yul\":9010:9085   */\n      tag_93\n      jump\t// in\n    tag_178:\n        /* \"#utility.yul\":9110:9112   */\n      0x20\n        /* \"#utility.yul\":9105:9108   */\n      dup3\n        /* \"#utility.yul\":9101:9113   */\n      add\n        /* \"#utility.yul\":9094:9113   */\n      swap2\n      pop\n        /* \"#utility.yul\":9130:9133   */\n      dup2\n        /* \"#utility.yul\":9123:9133   */\n      swap1\n      pop\n        /* \"#utility.yul\":8601:9139   */\n      swap5\n      swap4\n      pop\n      pop\n      pop\n      pop\n      jump\t// out\n\n    auxdata: 0xa26469706673582212204b9561f758139198e06f0312f9b52b5deb4f259e02b65bdd27332a28a698544a64736f6c63430008130033\n}\n",
				"bytecode": {
					"linkReferences": {},
					"object": "6080604052670de0b6b3a764000060005567016345785d8a0000600155600060025534801561002d57600080fd5b50610a0d8061003d6000396000f3fe60806040526004361061004a5760003560e01c8063307e44c71461004f5780637315351a146100595780638afc3605146100635780638da5cb5b1461007a578063ed21248c146100a5575b600080fd5b6100576100af565b005b610061610299565b005b34801561006f57600080fd5b506100786103a2565b005b34801561008657600080fd5b5061008f6103f9565b60405161009c919061056c565b60405180910390f35b6100ad61041f565b005b6001543411156100f4576040517f08c379a00000000000000000000000000000000000000000000000000000000081526004016100eb9061060a565b60405180910390fd5b47341115610137576040517f08c379a000000000000000000000000000000000000000000000000000000000815260040161012e9061069c565b60405180910390fd5b3373ffffffffffffffffffffffffffffffffffffffff1631341115610191576040517f08c379a000000000000000000000000000000000000000000000000000000000815260040161018890610708565b60405180910390fd5b7f4f96ec3de2dad9a903707c2db5a1676d43acd0356ec2b9b1beae6d0f81cc9db533346040516101c2929190610741565b60405180910390a16101d261047b565b156102975760003460036101e69190610799565b905060003373ffffffffffffffffffffffffffffffffffffffff168260405161020e9061080c565b60006040518083038185875af1925050503d806000811461024b576040519150601f19603f3d011682016040523d82523d6000602084013e610250565b606091505b5050905080610294576040517f08c379a000000000000000000000000000000000000000000000000000000000815260040161028b9061086d565b60405180910390fd5b50505b565b600360009054906101000a900473ffffffffffffffffffffffffffffffffffffffff1673ffffffffffffffffffffffffffffffffffffffff163373ffffffffffffffffffffffffffffffffffffffff16146102f357600080fd5b60003373ffffffffffffffffffffffffffffffffffffffff16476040516103199061080c565b60006040518083038185875af1925050503d8060008114610356576040519150601f19603f3d011682016040523d82523d6000602084013e61035b565b606091505b505090508061039f576040517f08c379a00000000000000000000000000000000000000000000000000000000081526004016103969061086d565b60405180910390fd5b50565b73c3556ba1e56f9fd263ff8196b3b783bd14d90ad8600360006101000a81548173ffffffffffffffffffffffffffffffffffffffff021916908373ffffffffffffffffffffffffffffffffffffffff160217905550565b600360009054906101000a900473ffffffffffffffffffffffffffffffffffffffff1681565b600360009054906101000a900473ffffffffffffffffffffffffffffffffffffffff1673ffffffffffffffffffffffffffffffffffffffff163373ffffffffffffffffffffffffffffffffffffffff161461047957600080fd5b565b6000806104866104e8565b9050600060019050600060028361049d91906108bc565b146104a757600090505b7f7fac04408bfd13d7c9af89f69591bb2435ee9f294d18d596e427cb46a37e921233826040516104d8929190610908565b60405180910390a1809250505090565b6000606442336002546040516020016105039392919061099a565b6040516020818303038152906040528051906020012060001c61052691906108bc565b905090565b600073ffffffffffffffffffffffffffffffffffffffff82169050919050565b60006105568261052b565b9050919050565b6105668161054b565b82525050565b6000602082019050610581600083018461055d565b92915050565b600082825260208201905092915050565b7f67616d626c6520616d6f756e74206861766520746f206c6f776572207468616e60008201527f20302e3100000000000000000000000000000000000000000000000000000000602082015250565b60006105f4602483610587565b91506105ff82610598565b604082019050919050565b60006020820190508181036000830152610623816105e7565b9050919050565b7f657863656564656420636f6e74726163742077616c6c6574277320616d6f756e60008201527f7400000000000000000000000000000000000000000000000000000000000000602082015250565b6000610686602183610587565b91506106918261062a565b604082019050919050565b600060208201905081810360008301526106b581610679565b9050919050565b7f657863656564656420796f75722077616c6c657420616d6f756e740000000000600082015250565b60006106f2601b83610587565b91506106fd826106bc565b602082019050919050565b60006020820190508181036000830152610721816106e5565b9050919050565b6000819050919050565b61073b81610728565b82525050565b6000604082019050610756600083018561055d565b6107636020830184610732565b9392505050565b7f4e487b7100000000000000000000000000000000000000000000000000000000600052601160045260246000fd5b60006107a482610728565b91506107af83610728565b92508282026107bd81610728565b915082820484148315176107d4576107d361076a565b5b5092915050565b600081905092915050565b50565b60006107f66000836107db565b9150610801826107e6565b600082019050919050565b6000610817826107e9565b9150819050919050565b7f4661696c656420746f2073656e64204574686572000000000000000000000000600082015250565b6000610857601483610587565b915061086282610821565b602082019050919050565b600060208201905081810360008301526108868161084a565b9050919050565b7f4e487b7100000000000000000000000000000000000000000000000000000000600052601260045260246000fd5b60006108c782610728565b91506108d283610728565b9250826108e2576108e161088d565b5b828206905092915050565b60008115159050919050565b610902816108ed565b82525050565b600060408201905061091d600083018561055d565b61092a60208301846108f9565b9392505050565b6000819050919050565b61094c61094782610728565b610931565b82525050565b60008160601b9050919050565b600061096a82610952565b9050919050565b600061097c8261095f565b9050919050565b61099461098f8261054b565b610971565b82525050565b60006109a6828661093b565b6020820191506109b68285610983565b6014820191506109c6828461093b565b60208201915081905094935050505056fea26469706673582212204b9561f758139198e06f0312f9b52b5deb4f259e02b65bdd27332a28a698544a64736f6c63430008130033",
					"opcodes": "PUSH1 0x80 PUSH1 0x40 MSTORE PUSH8 0xDE0B6B3A7640000 PUSH1 0x0 SSTORE PUSH8 0x16345785D8A0000 PUSH1 0x1 SSTORE PUSH1 0x0 PUSH1 0x2 SSTORE CALLVALUE DUP1 ISZERO PUSH2 0x2D JUMPI PUSH1 0x0 DUP1 REVERT JUMPDEST POP PUSH2 0xA0D DUP1 PUSH2 0x3D PUSH1 0x0 CODECOPY PUSH1 0x0 RETURN INVALID PUSH1 0x80 PUSH1 0x40 MSTORE PUSH1 0x4 CALLDATASIZE LT PUSH2 0x4A JUMPI PUSH1 0x0 CALLDATALOAD PUSH1 0xE0 SHR DUP1 PUSH4 0x307E44C7 EQ PUSH2 0x4F JUMPI DUP1 PUSH4 0x7315351A EQ PUSH2 0x59 JUMPI DUP1 PUSH4 0x8AFC3605 EQ PUSH2 0x63 JUMPI DUP1 PUSH4 0x8DA5CB5B EQ PUSH2 0x7A JUMPI DUP1 PUSH4 0xED21248C EQ PUSH2 0xA5 JUMPI JUMPDEST PUSH1 0x0 DUP1 REVERT JUMPDEST PUSH2 0x57 PUSH2 0xAF JUMP JUMPDEST STOP JUMPDEST PUSH2 0x61 PUSH2 0x299 JUMP JUMPDEST STOP JUMPDEST CALLVALUE DUP1 ISZERO PUSH2 0x6F JUMPI PUSH1 0x0 DUP1 REVERT JUMPDEST POP PUSH2 0x78 PUSH2 0x3A2 JUMP JUMPDEST STOP JUMPDEST CALLVALUE DUP1 ISZERO PUSH2 0x86 JUMPI PUSH1 0x0 DUP1 REVERT JUMPDEST POP PUSH2 0x8F PUSH2 0x3F9 JUMP JUMPDEST PUSH1 0x40 MLOAD PUSH2 0x9C SWAP2 SWAP1 PUSH2 0x56C JUMP JUMPDEST PUSH1 0x40 MLOAD DUP1 SWAP2 SUB SWAP1 RETURN JUMPDEST PUSH2 0xAD PUSH2 0x41F JUMP JUMPDEST STOP JUMPDEST PUSH1 0x1 SLOAD CALLVALUE GT ISZERO PUSH2 0xF4 JUMPI PUSH1 0x40 MLOAD PUSH32 0x8C379A000000000000000000000000000000000000000000000000000000000 DUP2 MSTORE PUSH1 0x4 ADD PUSH2 0xEB SWAP1 PUSH2 0x60A JUMP JUMPDEST PUSH1 0x40 MLOAD DUP1 SWAP2 SUB SWAP1 REVERT JUMPDEST SELFBALANCE CALLVALUE GT ISZERO PUSH2 0x137 JUMPI PUSH1 0x40 MLOAD PUSH32 0x8C379A000000000000000000000000000000000000000000000000000000000 DUP2 MSTORE PUSH1 0x4 ADD PUSH2 0x12E SWAP1 PUSH2 0x69C JUMP JUMPDEST PUSH1 0x40 MLOAD DUP1 SWAP2 SUB SWAP1 REVERT JUMPDEST CALLER PUSH20 0xFFFFFFFFFFFFFFFFFFFFFFFFFFFFFFFFFFFFFFFF AND BALANCE CALLVALUE GT ISZERO PUSH2 0x191 JUMPI PUSH1 0x40 MLOAD PUSH32 0x8C379A000000000000000000000000000000000000000000000000000000000 DUP2 MSTORE PUSH1 0x4 ADD PUSH2 0x188 SWAP1 PUSH2 0x708 JUMP JUMPDEST PUSH1 0x40 MLOAD DUP1 SWAP2 SUB SWAP1 REVERT JUMPDEST PUSH32 0x4F96EC3DE2DAD9A903707C2DB5A1676D43ACD0356EC2B9B1BEAE6D0F81CC9DB5 CALLER CALLVALUE PUSH1 0x40 MLOAD PUSH2 0x1C2 SWAP3 SWAP2 SWAP1 PUSH2 0x741 JUMP JUMPDEST PUSH1 0x40 MLOAD DUP1 SWAP2 SUB SWAP1 LOG1 PUSH2 0x1D2 PUSH2 0x47B JUMP JUMPDEST ISZERO PUSH2 0x297 JUMPI PUSH1 0x0 CALLVALUE PUSH1 0x3 PUSH2 0x1E6 SWAP2 SWAP1 PUSH2 0x799 JUMP JUMPDEST SWAP1 POP PUSH1 0x0 CALLER PUSH20 0xFFFFFFFFFFFFFFFFFFFFFFFFFFFFFFFFFFFFFFFF AND DUP3 PUSH1 0x40 MLOAD PUSH2 0x20E SWAP1 PUSH2 0x80C JUMP JUMPDEST PUSH1 0x0 PUSH1 0x40 MLOAD DUP1 DUP4 SUB DUP2 DUP6 DUP8 GAS CALL SWAP3 POP POP POP RETURNDATASIZE DUP1 PUSH1 0x0 DUP2 EQ PUSH2 0x24B JUMPI PUSH1 0x40 MLOAD SWAP2 POP PUSH1 0x1F NOT PUSH1 0x3F RETURNDATASIZE ADD AND DUP3 ADD PUSH1 0x40 MSTORE RETURNDATASIZE DUP3 MSTORE RETURNDATASIZE PUSH1 0x0 PUSH1 0x20 DUP5 ADD RETURNDATACOPY PUSH2 0x250 JUMP JUMPDEST PUSH1 0x60 SWAP2 POP JUMPDEST POP POP SWAP1 POP DUP1 PUSH2 0x294 JUMPI PUSH1 0x40 MLOAD PUSH32 0x8C379A000000000000000000000000000000000000000000000000000000000 DUP2 MSTORE PUSH1 0x4 ADD PUSH2 0x28B SWAP1 PUSH2 0x86D JUMP JUMPDEST PUSH1 0x40 MLOAD DUP1 SWAP2 SUB SWAP1 REVERT JUMPDEST POP POP JUMPDEST JUMP JUMPDEST PUSH1 0x3 PUSH1 0x0 SWAP1 SLOAD SWAP1 PUSH2 0x100 EXP SWAP1 DIV PUSH20 0xFFFFFFFFFFFFFFFFFFFFFFFFFFFFFFFFFFFFFFFF AND PUSH20 0xFFFFFFFFFFFFFFFFFFFFFFFFFFFFFFFFFFFFFFFF AND CALLER PUSH20 0xFFFFFFFFFFFFFFFFFFFFFFFFFFFFFFFFFFFFFFFF AND EQ PUSH2 0x2F3 JUMPI PUSH1 0x0 DUP1 REVERT JUMPDEST PUSH1 0x0 CALLER PUSH20 0xFFFFFFFFFFFFFFFFFFFFFFFFFFFFFFFFFFFFFFFF AND SELFBALANCE PUSH1 0x40 MLOAD PUSH2 0x319 SWAP1 PUSH2 0x80C JUMP JUMPDEST PUSH1 0x0 PUSH1 0x40 MLOAD DUP1 DUP4 SUB DUP2 DUP6 DUP8 GAS CALL SWAP3 POP POP POP RETURNDATASIZE DUP1 PUSH1 0x0 DUP2 EQ PUSH2 0x356 JUMPI PUSH1 0x40 MLOAD SWAP2 POP PUSH1 0x1F NOT PUSH1 0x3F RETURNDATASIZE ADD AND DUP3 ADD PUSH1 0x40 MSTORE RETURNDATASIZE DUP3 MSTORE RETURNDATASIZE PUSH1 0x0 PUSH1 0x20 DUP5 ADD RETURNDATACOPY PUSH2 0x35B JUMP JUMPDEST PUSH1 0x60 SWAP2 POP JUMPDEST POP POP SWAP1 POP DUP1 PUSH2 0x39F JUMPI PUSH1 0x40 MLOAD PUSH32 0x8C379A000000000000000000000000000000000000000000000000000000000 DUP2 MSTORE PUSH1 0x4 ADD PUSH2 0x396 SWAP1 PUSH2 0x86D JUMP JUMPDEST PUSH1 0x40 MLOAD DUP1 SWAP2 SUB SWAP1 REVERT JUMPDEST POP JUMP JUMPDEST PUSH20 0xC3556BA1E56F9FD263FF8196B3B783BD14D90AD8 PUSH1 0x3 PUSH1 0x0 PUSH2 0x100 EXP DUP2 SLOAD DUP2 PUSH20 0xFFFFFFFFFFFFFFFFFFFFFFFFFFFFFFFFFFFFFFFF MUL NOT AND SWAP1 DUP4 PUSH20 0xFFFFFFFFFFFFFFFFFFFFFFFFFFFFFFFFFFFFFFFF AND MUL OR SWAP1 SSTORE POP JUMP JUMPDEST PUSH1 0x3 PUSH1 0x0 SWAP1 SLOAD SWAP1 PUSH2 0x100 EXP SWAP1 DIV PUSH20 0xFFFFFFFFFFFFFFFFFFFFFFFFFFFFFFFFFFFFFFFF AND DUP2 JUMP JUMPDEST PUSH1 0x3 PUSH1 0x0 SWAP1 SLOAD SWAP1 PUSH2 0x100 EXP SWAP1 DIV PUSH20 0xFFFFFFFFFFFFFFFFFFFFFFFFFFFFFFFFFFFFFFFF AND PUSH20 0xFFFFFFFFFFFFFFFFFFFFFFFFFFFFFFFFFFFFFFFF AND CALLER PUSH20 0xFFFFFFFFFFFFFFFFFFFFFFFFFFFFFFFFFFFFFFFF AND EQ PUSH2 0x479 JUMPI PUSH1 0x0 DUP1 REVERT JUMPDEST JUMP JUMPDEST PUSH1 0x0 DUP1 PUSH2 0x486 PUSH2 0x4E8 JUMP JUMPDEST SWAP1 POP PUSH1 0x0 PUSH1 0x1 SWAP1 POP PUSH1 0x0 PUSH1 0x2 DUP4 PUSH2 0x49D SWAP2 SWAP1 PUSH2 0x8BC JUMP JUMPDEST EQ PUSH2 0x4A7 JUMPI PUSH1 0x0 SWAP1 POP JUMPDEST PUSH32 0x7FAC04408BFD13D7C9AF89F69591BB2435EE9F294D18D596E427CB46A37E9212 CALLER DUP3 PUSH1 0x40 MLOAD PUSH2 0x4D8 SWAP3 SWAP2 SWAP1 PUSH2 0x908 JUMP JUMPDEST PUSH1 0x40 MLOAD DUP1 SWAP2 SUB SWAP1 LOG1 DUP1 SWAP3 POP POP POP SWAP1 JUMP JUMPDEST PUSH1 0x0 PUSH1 0x64 TIMESTAMP CALLER PUSH1 0x2 SLOAD PUSH1 0x40 MLOAD PUSH1 0x20 ADD PUSH2 0x503 SWAP4 SWAP3 SWAP2 SWAP1 PUSH2 0x99A JUMP JUMPDEST PUSH1 0x40 MLOAD PUSH1 0x20 DUP2 DUP4 SUB SUB DUP2 MSTORE SWAP1 PUSH1 0x40 MSTORE DUP1 MLOAD SWAP1 PUSH1 0x20 ADD KECCAK256 PUSH1 0x0 SHR PUSH2 0x526 SWAP2 SWAP1 PUSH2 0x8BC JUMP JUMPDEST SWAP1 POP SWAP1 JUMP JUMPDEST PUSH1 0x0 PUSH20 0xFFFFFFFFFFFFFFFFFFFFFFFFFFFFFFFFFFFFFFFF DUP3 AND SWAP1 POP SWAP2 SWAP1 POP JUMP JUMPDEST PUSH1 0x0 PUSH2 0x556 DUP3 PUSH2 0x52B JUMP JUMPDEST SWAP1 POP SWAP2 SWAP1 POP JUMP JUMPDEST PUSH2 0x566 DUP2 PUSH2 0x54B JUMP JUMPDEST DUP3 MSTORE POP POP JUMP JUMPDEST PUSH1 0x0 PUSH1 0x20 DUP3 ADD SWAP1 POP PUSH2 0x581 PUSH1 0x0 DUP4 ADD DUP5 PUSH2 0x55D JUMP JUMPDEST SWAP3 SWAP2 POP POP JUMP JUMPDEST PUSH1 0x0 DUP3 DUP3 MSTORE PUSH1 0x20 DUP3 ADD SWAP1 POP SWAP3 SWAP2 POP POP JUMP JUMPDEST PUSH32 0x67616D626C6520616D6F756E74206861766520746F206C6F776572207468616E PUSH1 0x0 DUP3 ADD MSTORE PUSH32 0x20302E3100000000000000000000000000000000000000000000000000000000 PUSH1 0x20 DUP3 ADD MSTORE POP JUMP JUMPDEST PUSH1 0x0 PUSH2 0x5F4 PUSH1 0x24 DUP4 PUSH2 0x587 JUMP JUMPDEST SWAP2 POP PUSH2 0x5FF DUP3 PUSH2 0x598 JUMP JUMPDEST PUSH1 0x40 DUP3 ADD SWAP1 POP SWAP2 SWAP1 POP JUMP JUMPDEST PUSH1 0x0 PUSH1 0x20 DUP3 ADD SWAP1 POP DUP2 DUP2 SUB PUSH1 0x0 DUP4 ADD MSTORE PUSH2 0x623 DUP2 PUSH2 0x5E7 JUMP JUMPDEST SWAP1 POP SWAP2 SWAP1 POP JUMP JUMPDEST PUSH32 0x657863656564656420636F6E74726163742077616C6C6574277320616D6F756E PUSH1 0x0 DUP3 ADD MSTORE PUSH32 0x7400000000000000000000000000000000000000000000000000000000000000 PUSH1 0x20 DUP3 ADD MSTORE POP JUMP JUMPDEST PUSH1 0x0 PUSH2 0x686 PUSH1 0x21 DUP4 PUSH2 0x587 JUMP JUMPDEST SWAP2 POP PUSH2 0x691 DUP3 PUSH2 0x62A JUMP JUMPDEST PUSH1 0x40 DUP3 ADD SWAP1 POP SWAP2 SWAP1 POP JUMP JUMPDEST PUSH1 0x0 PUSH1 0x20 DUP3 ADD SWAP1 POP DUP2 DUP2 SUB PUSH1 0x0 DUP4 ADD MSTORE PUSH2 0x6B5 DUP2 PUSH2 0x679 JUMP JUMPDEST SWAP1 POP SWAP2 SWAP1 POP JUMP JUMPDEST PUSH32 0x657863656564656420796F75722077616C6C657420616D6F756E740000000000 PUSH1 0x0 DUP3 ADD MSTORE POP JUMP JUMPDEST PUSH1 0x0 PUSH2 0x6F2 PUSH1 0x1B DUP4 PUSH2 0x587 JUMP JUMPDEST SWAP2 POP PUSH2 0x6FD DUP3 PUSH2 0x6BC JUMP JUMPDEST PUSH1 0x20 DUP3 ADD SWAP1 POP SWAP2 SWAP1 POP JUMP JUMPDEST PUSH1 0x0 PUSH1 0x20 DUP3 ADD SWAP1 POP DUP2 DUP2 SUB PUSH1 0x0 DUP4 ADD MSTORE PUSH2 0x721 DUP2 PUSH2 0x6E5 JUMP JUMPDEST SWAP1 POP SWAP2 SWAP1 POP JUMP JUMPDEST PUSH1 0x0 DUP2 SWAP1 POP SWAP2 SWAP1 POP JUMP JUMPDEST PUSH2 0x73B DUP2 PUSH2 0x728 JUMP JUMPDEST DUP3 MSTORE POP POP JUMP JUMPDEST PUSH1 0x0 PUSH1 0x40 DUP3 ADD SWAP1 POP PUSH2 0x756 PUSH1 0x0 DUP4 ADD DUP6 PUSH2 0x55D JUMP JUMPDEST PUSH2 0x763 PUSH1 0x20 DUP4 ADD DUP5 PUSH2 0x732 JUMP JUMPDEST SWAP4 SWAP3 POP POP POP JUMP JUMPDEST PUSH32 0x4E487B7100000000000000000000000000000000000000000000000000000000 PUSH1 0x0 MSTORE PUSH1 0x11 PUSH1 0x4 MSTORE PUSH1 0x24 PUSH1 0x0 REVERT JUMPDEST PUSH1 0x0 PUSH2 0x7A4 DUP3 PUSH2 0x728 JUMP JUMPDEST SWAP2 POP PUSH2 0x7AF DUP4 PUSH2 0x728 JUMP JUMPDEST SWAP3 POP DUP3 DUP3 MUL PUSH2 0x7BD DUP2 PUSH2 0x728 JUMP JUMPDEST SWAP2 POP DUP3 DUP3 DIV DUP5 EQ DUP4 ISZERO OR PUSH2 0x7D4 JUMPI PUSH2 0x7D3 PUSH2 0x76A JUMP JUMPDEST JUMPDEST POP SWAP3 SWAP2 POP POP JUMP JUMPDEST PUSH1 0x0 DUP2 SWAP1 POP SWAP3 SWAP2 POP POP JUMP JUMPDEST POP JUMP JUMPDEST PUSH1 0x0 PUSH2 0x7F6 PUSH1 0x0 DUP4 PUSH2 0x7DB JUMP JUMPDEST SWAP2 POP PUSH2 0x801 DUP3 PUSH2 0x7E6 JUMP JUMPDEST PUSH1 0x0 DUP3 ADD SWAP1 POP SWAP2 SWAP1 POP JUMP JUMPDEST PUSH1 0x0 PUSH2 0x817 DUP3 PUSH2 0x7E9 JUMP JUMPDEST SWAP2 POP DUP2 SWAP1 POP SWAP2 SWAP1 POP JUMP JUMPDEST PUSH32 0x4661696C656420746F2073656E64204574686572000000000000000000000000 PUSH1 0x0 DUP3 ADD MSTORE POP JUMP JUMPDEST PUSH1 0x0 PUSH2 0x857 PUSH1 0x14 DUP4 PUSH2 0x587 JUMP JUMPDEST SWAP2 POP PUSH2 0x862 DUP3 PUSH2 0x821 JUMP JUMPDEST PUSH1 0x20 DUP3 ADD SWAP1 POP SWAP2 SWAP1 POP JUMP JUMPDEST PUSH1 0x0 PUSH1 0x20 DUP3 ADD SWAP1 POP DUP2 DUP2 SUB PUSH1 0x0 DUP4 ADD MSTORE PUSH2 0x886 DUP2 PUSH2 0x84A JUMP JUMPDEST SWAP1 POP SWAP2 SWAP1 POP JUMP JUMPDEST PUSH32 0x4E487B7100000000000000000000000000000000000000000000000000000000 PUSH1 0x0 MSTORE PUSH1 0x12 PUSH1 0x4 MSTORE PUSH1 0x24 PUSH1 0x0 REVERT JUMPDEST PUSH1 0x0 PUSH2 0x8C7 DUP3 PUSH2 0x728 JUMP JUMPDEST SWAP2 POP PUSH2 0x8D2 DUP4 PUSH2 0x728 JUMP JUMPDEST SWAP3 POP DUP3 PUSH2 0x8E2 JUMPI PUSH2 0x8E1 PUSH2 0x88D JUMP JUMPDEST JUMPDEST DUP3 DUP3 MOD SWAP1 POP SWAP3 SWAP2 POP POP JUMP JUMPDEST PUSH1 0x0 DUP2 ISZERO ISZERO SWAP1 POP SWAP2 SWAP1 POP JUMP JUMPDEST PUSH2 0x902 DUP2 PUSH2 0x8ED JUMP JUMPDEST DUP3 MSTORE POP POP JUMP JUMPDEST PUSH1 0x0 PUSH1 0x40 DUP3 ADD SWAP1 POP PUSH2 0x91D PUSH1 0x0 DUP4 ADD DUP6 PUSH2 0x55D JUMP JUMPDEST PUSH2 0x92A PUSH1 0x20 DUP4 ADD DUP5 PUSH2 0x8F9 JUMP JUMPDEST SWAP4 SWAP3 POP POP POP JUMP JUMPDEST PUSH1 0x0 DUP2 SWAP1 POP SWAP2 SWAP1 POP JUMP JUMPDEST PUSH2 0x94C PUSH2 0x947 DUP3 PUSH2 0x728 JUMP JUMPDEST PUSH2 0x931 JUMP JUMPDEST DUP3 MSTORE POP POP JUMP JUMPDEST PUSH1 0x0 DUP2 PUSH1 0x60 SHL SWAP1 POP SWAP2 SWAP1 POP JUMP JUMPDEST PUSH1 0x0 PUSH2 0x96A DUP3 PUSH2 0x952 JUMP JUMPDEST SWAP1 POP SWAP2 SWAP1 POP JUMP JUMPDEST PUSH1 0x0 PUSH2 0x97C DUP3 PUSH2 0x95F JUMP JUMPDEST SWAP1 POP SWAP2 SWAP1 POP JUMP JUMPDEST PUSH2 0x994 PUSH2 0x98F DUP3 PUSH2 0x54B JUMP JUMPDEST PUSH2 0x971 JUMP JUMPDEST DUP3 MSTORE POP POP JUMP JUMPDEST PUSH1 0x0 PUSH2 0x9A6 DUP3 DUP7 PUSH2 0x93B JUMP JUMPDEST PUSH1 0x20 DUP3 ADD SWAP2 POP PUSH2 0x9B6 DUP3 DUP6 PUSH2 0x983 JUMP JUMPDEST PUSH1 0x14 DUP3 ADD SWAP2 POP PUSH2 0x9C6 DUP3 DUP5 PUSH2 0x93B JUMP JUMPDEST PUSH1 0x20 DUP3 ADD SWAP2 POP DUP2 SWAP1 POP SWAP5 SWAP4 POP POP POP POP JUMP INVALID LOG2 PUSH5 0x6970667358 0x22 SLT KECCAK256 0x4B SWAP6 PUSH2 0xF758 SGT SWAP2 SWAP9 0xE0 PUSH16 0x312F9B52B5DEB4F259E02B65BDD2733 0x2A 0x28 0xA6 SWAP9 SLOAD 0x4A PUSH5 0x736F6C6343 STOP ADDMOD SGT STOP CALLER "
				},
				"gasEstimates": {
					"creation": {
						"codeDepositCost": "514600",
						"executionCost": "49767",
						"totalCost": "564367"
					},
					"external": {
						"Deposit()": "2356",
						"GambleStart()": "infinite",
						"Ownable()": "24433",
						"SendAll()": "infinite",
						"owner()": "2558"
					},
					"internal": {
						"CheckResult()": "infinite",
						"_generateRandNum()": "infinite"
					}
				},
				"methodIdentifiers": {
					"Deposit()": "ed21248c",
					"GambleStart()": "307e44c7",
					"Ownable()": "8afc3605",
					"SendAll()": "7315351a",
					"owner()": "8da5cb5b"
				}
			},
			"storageLayout": {
				"storage": [
					{
						"astId": 20,
						"contract": "tabi/tabiContractForInteraction/gamble.sol:TabiGamble",
						"label": "eth2wei",
						"offset": 0,
						"slot": "0",
						"type": "t_uint256"
					},
					{
						"astId": 23,
						"contract": "tabi/tabiContractForInteraction/gamble.sol:TabiGamble",
						"label": "_maxStake",
						"offset": 0,
						"slot": "1",
						"type": "t_uint256"
					},
					{
						"astId": 26,
						"contract": "tabi/tabiContractForInteraction/gamble.sol:TabiGamble",
						"label": "_nonce",
						"offset": 0,
						"slot": "2",
						"type": "t_uint256"
					},
					{
						"astId": 28,
						"contract": "tabi/tabiContractForInteraction/gamble.sol:TabiGamble",
						"label": "owner",
						"offset": 0,
						"slot": "3",
						"type": "t_address"
					}
				],
				"types": {
					"t_address": {
						"encoding": "inplace",
						"label": "address",
						"numberOfBytes": "20"
					},
					"t_uint256": {
						"encoding": "inplace",
						"label": "uint256",
						"numberOfBytes": "32"
					}
				}
			},
			"userdoc": {
				"kind": "user",
				"methods": {},
				"version": 1
			}
		}
	}
}